{
  "contractName": "Attestation",
  "abi": [
    {
      "constant": true,
      "inputs": [],
      "name": "getClaimsCount",
      "outputs": [
        {
          "name": "claimsCount",
          "type": "uint256"
        }
      ],
      "payable": false,
      "stateMutability": "view",
      "type": "function"
    },
    {
      "constant": true,
      "inputs": [
        {
          "name": "",
          "type": "uint256"
        }
      ],
      "name": "orgs",
      "outputs": [
        {
          "name": "verified",
          "type": "bool"
        },
        {
          "name": "name",
          "type": "string"
        },
        {
          "name": "registrationNumber",
          "type": "string"
        },
        {
          "name": "uportId",
          "type": "string"
        },
        {
          "name": "owner",
          "type": "address"
        }
      ],
      "payable": false,
      "stateMutability": "view",
      "type": "function"
    },
    {
      "constant": true,
      "inputs": [],
      "name": "getOrgsCount",
      "outputs": [
        {
          "name": "orgsCount",
          "type": "uint256"
        }
      ],
      "payable": false,
      "stateMutability": "view",
      "type": "function"
    },
    {
      "constant": true,
      "inputs": [
        {
          "name": "",
          "type": "uint256"
        }
      ],
      "name": "claims",
      "outputs": [
        {
          "name": "name",
          "type": "string"
        },
        {
          "name": "organisation",
          "type": "address"
        },
        {
          "name": "verified",
          "type": "bool"
        },
        {
          "name": "isPublic",
          "type": "bool"
        },
        {
          "name": "claimant",
          "type": "address"
        },
        {
          "name": "claimantUportId",
          "type": "string"
        },
        {
          "name": "added",
          "type": "uint256"
        }
      ],
      "payable": false,
      "stateMutability": "view",
      "type": "function"
    },
    {
      "constant": false,
      "inputs": [
        {
          "name": "name",
          "type": "string"
        },
        {
          "name": "organisation",
          "type": "address"
        },
        {
          "name": "claimant",
          "type": "address"
        },
        {
          "name": "isPublic",
          "type": "bool"
        },
        {
          "name": "claimantUportId",
          "type": "string"
        }
      ],
      "name": "addClaim",
      "outputs": [
        {
          "name": "claimIndex",
          "type": "uint256"
        }
      ],
      "payable": false,
      "stateMutability": "nonpayable",
      "type": "function"
    },
    {
      "constant": false,
      "inputs": [
        {
          "name": "claimIndex",
          "type": "uint256"
        }
      ],
      "name": "verifyClaim",
      "outputs": [],
      "payable": false,
      "stateMutability": "nonpayable",
      "type": "function"
    },
    {
      "constant": false,
      "inputs": [
        {
          "name": "uportId",
          "type": "string"
        },
        {
          "name": "name",
          "type": "string"
        },
        {
          "name": "registrationNumber",
          "type": "string"
        }
      ],
      "name": "addOrganisation",
      "outputs": [
        {
          "name": "orgIndex",
          "type": "uint256"
        }
      ],
      "payable": false,
      "stateMutability": "nonpayable",
      "type": "function"
    },
    {
      "inputs": [],
      "payable": false,
      "stateMutability": "nonpayable",
      "type": "constructor"
    },
    {
      "anonymous": false,
      "inputs": [
        {
          "indexed": true,
          "name": "orgAddress",
          "type": "address"
        },
        {
          "indexed": false,
          "name": "uportId",
          "type": "string"
        },
        {
          "indexed": false,
          "name": "name",
          "type": "string"
        }
      ],
      "name": "OrganisationAdded",
      "type": "event"
    },
    {
      "anonymous": false,
      "inputs": [
        {
          "indexed": true,
          "name": "organisation",
          "type": "address"
        },
        {
          "indexed": true,
          "name": "claimant",
          "type": "address"
        }
      ],
      "name": "ClaimAdded",
      "type": "event"
    }
  ],
  "bytecode": "0x6060604052341561000f57600080fd5b336000806101000a81548173ffffffffffffffffffffffffffffffffffffffff021916908373ffffffffffffffffffffffffffffffffffffffff1602179055506111258061005e6000396000f300606060405260043610610083576000357c0100000000000000000000000000000000000000000000000000000000900463ffffffff1680633ef8f2ba146100885780634f5c2e6c146100b157806376eb92ab146102ba578063a888c2cd146102e3578063bf081440146104a8578063c0d7e2b6146105a5578063c35d3370146105c8575b600080fd5b341561009357600080fd5b61009b6106bf565b6040518082815260200191505060405180910390f35b34156100bc57600080fd5b6100d260048080359060200190919050506106cc565b60405180861515151581526020018060200180602001806020018573ffffffffffffffffffffffffffffffffffffffff1673ffffffffffffffffffffffffffffffffffffffff16815260200184810384528881815460018160011615610100020316600290048152602001915080546001816001161561010002031660029004801561019f5780601f106101745761010080835404028352916020019161019f565b820191906000526020600020905b81548152906001019060200180831161018257829003601f168201915b50508481038352878181546001816001161561010002031660029004815260200191508054600181600116156101000203166002900480156102225780601f106101f757610100808354040283529160200191610222565b820191906000526020600020905b81548152906001019060200180831161020557829003601f168201915b50508481038252868181546001816001161561010002031660029004815260200191508054600181600116156101000203166002900480156102a55780601f1061027a576101008083540402835291602001916102a5565b820191906000526020600020905b81548152906001019060200180831161028857829003601f168201915b50509850505050505050505060405180910390f35b34156102c557600080fd5b6102cd61073b565b6040518082815260200191505060405180910390f35b34156102ee57600080fd5b6103046004808035906020019091905050610748565b60405180806020018873ffffffffffffffffffffffffffffffffffffffff1673ffffffffffffffffffffffffffffffffffffffff16815260200187151515158152602001861515151581526020018573ffffffffffffffffffffffffffffffffffffffff1673ffffffffffffffffffffffffffffffffffffffff1681526020018060200184815260200183810383528a81815460018160011615610100020316600290048152602001915080546001816001161561010002031660029004801561040f5780601f106103e45761010080835404028352916020019161040f565b820191906000526020600020905b8154815290600101906020018083116103f257829003601f168201915b50508381038252858181546001816001161561010002031660029004815260200191508054600181600116156101000203166002900480156104925780601f1061046757610100808354040283529160200191610492565b820191906000526020600020905b81548152906001019060200180831161047557829003601f168201915b5050995050505050505050505060405180910390f35b34156104b357600080fd5b61058f600480803590602001908201803590602001908080601f0160208091040260200160405190810160405280939291908181526020018383808284378201915050505050509190803573ffffffffffffffffffffffffffffffffffffffff1690602001909190803573ffffffffffffffffffffffffffffffffffffffff16906020019091908035151590602001909190803590602001908201803590602001908080601f016020809104026020016040519081016040528093929190818152602001838380828437820191505050505050919050506107f1565b6040518082815260200191505060405180910390f35b34156105b057600080fd5b6105c66004808035906020019091905050610a52565b005b34156105d357600080fd5b6106a9600480803590602001908201803590602001908080601f0160208091040260200160405190810160405280939291908181526020018383808284378201915050505050509190803590602001908201803590602001908080601f0160208091040260200160405190810160405280939291908181526020018383808284378201915050505050509190803590602001908201803590602001908080601f01602080910402602001604051908101604052809392919081815260200183838082843782019150505050505091905050610af2565b6040518082815260200191505060405180910390f35b6000600280549050905090565b6001818154811015156106db57fe5b90600052602060002090600502016000915090508060000160009054906101000a900460ff16908060010190806002019080600301908060040160009054906101000a900473ffffffffffffffffffffffffffffffffffffffff16905085565b6000600180549050905090565b60028181548110151561075757fe5b906000526020600020906005020160009150905080600001908060010160009054906101000a900473ffffffffffffffffffffffffffffffffffffffff16908060010160149054906101000a900460ff16908060010160159054906101000a900460ff16908060020160009054906101000a900473ffffffffffffffffffffffffffffffffffffffff169080600301908060040154905087565b60006107fb610d79565b86816000018190525085816020019073ffffffffffffffffffffffffffffffffffffffff16908173ffffffffffffffffffffffffffffffffffffffff168152505060008160400190151590811515815250508381606001901515908115158152505084816080019073ffffffffffffffffffffffffffffffffffffffff16908173ffffffffffffffffffffffffffffffffffffffff1681525050828160a00181905250428160c00181815250506001600280548060010182816108be9190610df3565b9160005260206000209060050201600084909190915060008201518160000190805190602001906108f0929190610e25565b5060208201518160010160006101000a81548173ffffffffffffffffffffffffffffffffffffffff021916908373ffffffffffffffffffffffffffffffffffffffff16021790555060408201518160010160146101000a81548160ff02191690831515021790555060608201518160010160156101000a81548160ff02191690831515021790555060808201518160020160006101000a81548173ffffffffffffffffffffffffffffffffffffffff021916908373ffffffffffffffffffffffffffffffffffffffff16021790555060a08201518160030190805190602001906109db929190610e25565b5060c0820151816004015550500391508473ffffffffffffffffffffffffffffffffffffffff168673ffffffffffffffffffffffffffffffffffffffff167f048fb386b60c0381c35ec94e3c4fb28df18491980eb5a75d1a8fa9fa7c4fbd2d60405160405180910390a38191505095945050505050565b6000600282815481101515610a6357fe5b906000526020600020906005020190508060010160009054906101000a900473ffffffffffffffffffffffffffffffffffffffff1673ffffffffffffffffffffffffffffffffffffffff163373ffffffffffffffffffffffffffffffffffffffff16141515610ad157600080fd5b60018160010160146101000a81548160ff0219169083151502179055505050565b6000610afc610ea5565b600081600001901515908115158152505083816020018190525082816040018190525084816060018190525033816080019073ffffffffffffffffffffffffffffffffffffffff16908173ffffffffffffffffffffffffffffffffffffffff16815250506001808054806001018281610b759190610eff565b9160005260206000209060050201600084909190915060008201518160000160006101000a81548160ff0219169083151502179055506020820151816001019080519060200190610bc7929190610e25565b506040820151816002019080519060200190610be4929190610e25565b506060820151816003019080519060200190610c01929190610e25565b5060808201518160040160006101000a81548173ffffffffffffffffffffffffffffffffffffffff021916908373ffffffffffffffffffffffffffffffffffffffff16021790555050500391503373ffffffffffffffffffffffffffffffffffffffff167fc4ec86da02df194278df461483335e5aa900124a9e37bc7783e6df9f23115f778686604051808060200180602001838103835285818151815260200191508051906020019080838360005b83811015610ccc578082015181840152602081019050610cb1565b50505050905090810190601f168015610cf95780820380516001836020036101000a031916815260200191505b50838103825284818151815260200191508051906020019080838360005b83811015610d32578082015181840152602081019050610d17565b50505050905090810190601f168015610d5f5780820380516001836020036101000a031916815260200191505b5094505050505060405180910390a2819150509392505050565b60e060405190810160405280610d8d610f31565b8152602001600073ffffffffffffffffffffffffffffffffffffffff168152602001600015158152602001600015158152602001600073ffffffffffffffffffffffffffffffffffffffff168152602001610de6610f31565b8152602001600081525090565b815481835581811511610e2057600502816005028360005260206000209182019101610e1f9190610f45565b5b505050565b828054600181600116156101000203166002900490600052602060002090601f016020900481019282601f10610e6657805160ff1916838001178555610e94565b82800160010185558215610e94579182015b82811115610e93578251825591602001919060010190610e78565b5b509050610ea19190611002565b5090565b60a060405190810160405280600015158152602001610ec2610f31565b8152602001610ecf610f31565b8152602001610edc610f31565b8152602001600073ffffffffffffffffffffffffffffffffffffffff1681525090565b815481835581811511610f2c57600502816005028360005260206000209182019101610f2b9190611027565b5b505050565b602060405190810160405280600081525090565b610fff91905b80821115610ffb5760008082016000610f6491906110b1565b6001820160006101000a81549073ffffffffffffffffffffffffffffffffffffffff02191690556001820160146101000a81549060ff02191690556001820160156101000a81549060ff02191690556002820160006101000a81549073ffffffffffffffffffffffffffffffffffffffff0219169055600382016000610fea91906110b1565b600482016000905550600501610f4b565b5090565b90565b61102491905b80821115611020576000816000905550600101611008565b5090565b90565b6110ae91905b808211156110aa57600080820160006101000a81549060ff021916905560018201600061105a91906110b1565b60028201600061106a91906110b1565b60038201600061107a91906110b1565b6004820160006101000a81549073ffffffffffffffffffffffffffffffffffffffff02191690555060050161102d565b5090565b90565b50805460018160011615610100020316600290046000825580601f106110d757506110f6565b601f0160209004906000526020600020908101906110f59190611002565b5b505600a165627a7a723058200ee02e8088adc43e55ff4d4bf804b9de16e75427aa006bb79c691926f6d00e820029",
  "source": "pragma solidity ^0.4.17;\n\ncontract Attestation {\n\n  address private owner;\n  Organisation[] public orgs;\n  //we need to figure out how one can return a filtered list of claims for someone.\n  Claim[] public claims;\n\n  event OrganisationAdded(address indexed orgAddress, string uportId, string name);\n  event ClaimAdded(address indexed organisation, address indexed claimant);\n\n  struct Organisation {\n    bool verified;\n    string name;\n    string registrationNumber;\n    string uportId;\n    address owner;\n  }\n\n  //too much information, will reduce later once we know what isn't useful.\n  struct Claim {\n    string name;\n    address organisation;\n    bool verified;\n    bool isPublic;\n    address claimant;\n    string claimantUportId;\n    uint added;\n  }\n\n  function addClaim(string name, address organisation, address claimant, bool isPublic, string claimantUportId) public returns (uint claimIndex) {\n\n    Claim memory claim;\n\n    claim.name = name;\n    claim.organisation = organisation;\n    claim.verified = false;//make sure it's false\n    claim.isPublic = isPublic;\n    claim.claimant = claimant;\n    claim.claimantUportId = claimantUportId;\n    claim.added = block.timestamp;\n\n    claimIndex = claims.push(claim)-1;\n\n    ClaimAdded(organisation, claimant);\n\n    return claimIndex;\n  }\n\n  function Attestation() public {\n    owner = msg.sender;\n  }\n\n  function addOrganisation(string uportId, string name,string registrationNumber) public returns (uint orgIndex){\n    //require(!organisations[msg.sender]);\n\n    Organisation memory org;\n\n    org.verified=false;\n    org.name= name;\n    org.registrationNumber= registrationNumber;\n    org.uportId = uportId;\n    org.owner = msg.sender;\n\n    orgIndex = orgs.push(org)-1;\n\n    OrganisationAdded(msg.sender, uportId, name);\n\n    return orgIndex;\n\n  }\n\n  function verifyClaim(uint claimIndex) public {\n\n    Claim claim = claims[claimIndex];\n\n    require(msg.sender == claim.organisation);\n\n    claim.verified = true;\n  }\n\n  //make this protected by either the claimant or public or organisation\n\n  /* function getClaims(address claimant) returns (uint[10]){ */\n  /*   uint[] memory claimIds = new uint[]; */\n  /*   for (uint i =0; i < getClaimsCount(); i++){ */\n  /*     if (claims[i].claimant == claimant){ */\n  /*       claimIds.push(i); */\n  /*     } */\n  /*   } */\n\n  /*   return claimIds; */\n  /* } */\n\n  function getOrgsCount() public constant returns(uint orgsCount) {\n    return orgs.length;\n  }\n\n  function getClaimsCount() public constant returns(uint claimsCount) {\n    return claims.length;\n  }\n}\n",
  "sourcePath": "/Users/theobohnen/Source/unlocktheblock/website/contracts/Attestations.sol",
  "compiler": {
    "name": "solc",
    "version": "0.4.18+commit.9cf6e910.Emscripten.clang"
  },
  "schemaVersion": "1.0.1",
  "updatedAt": "2018-01-31T10:42:36.129Z"
}