{
  "contractName": "Attestation",
  "abi": [
    {
      "constant": true,
      "inputs": [
        {
          "name": "",
          "type": "uint256"
        }
      ],
      "name": "orgs",
      "outputs": [
        {
          "name": "verified",
          "type": "bool"
        },
        {
          "name": "name",
          "type": "string"
        },
        {
          "name": "registrationNumber",
          "type": "string"
        },
        {
          "name": "uportId",
          "type": "string"
        }
      ],
      "payable": false,
      "stateMutability": "view",
      "type": "function"
    },
    {
      "constant": true,
      "inputs": [],
      "name": "getOrgsCount",
      "outputs": [
        {
          "name": "orgsCount",
          "type": "uint256"
        }
      ],
      "payable": false,
      "stateMutability": "view",
      "type": "function"
    },
    {
      "constant": false,
      "inputs": [
        {
          "name": "uportId",
          "type": "string"
        },
        {
          "name": "name",
          "type": "string"
        },
        {
          "name": "registrationNumber",
          "type": "string"
        }
      ],
      "name": "addOrganisation",
      "outputs": [],
      "payable": false,
      "stateMutability": "nonpayable",
      "type": "function"
    },
    {
      "inputs": [],
      "payable": false,
      "stateMutability": "nonpayable",
      "type": "constructor"
    },
    {
      "anonymous": false,
      "inputs": [
        {
          "indexed": true,
          "name": "orgAddress",
          "type": "address"
        },
        {
          "indexed": false,
          "name": "uportId",
          "type": "string"
        },
        {
          "indexed": false,
          "name": "name",
          "type": "string"
        }
      ],
      "name": "OrganisationAdded",
      "type": "event"
    }
  ],
  "bytecode": "0x6060604052341561000f57600080fd5b336000806101000a81548173ffffffffffffffffffffffffffffffffffffffff021916908373ffffffffffffffffffffffffffffffffffffffff1602179055506107918061005e6000396000f300606060405260043610610057576000357c0100000000000000000000000000000000000000000000000000000000900463ffffffff1680634f5c2e6c1461005c57806376eb92ab14610232578063c35d33701461025b575b600080fd5b341561006757600080fd5b61007d600480803590602001909190505061033e565b60405180851515151581526020018060200180602001806020018481038452878181546001816001161561010002031660029004815260200191508054600181600116156101000203166002900480156101185780601f106100ed57610100808354040283529160200191610118565b820191906000526020600020905b8154815290600101906020018083116100fb57829003601f168201915b505084810383528681815460018160011615610100020316600290048152602001915080546001816001161561010002031660029004801561019b5780601f106101705761010080835404028352916020019161019b565b820191906000526020600020905b81548152906001019060200180831161017e57829003601f168201915b505084810382528581815460018160011615610100020316600290048152602001915080546001816001161561010002031660029004801561021e5780601f106101f35761010080835404028352916020019161021e565b820191906000526020600020905b81548152906001019060200180831161020157829003601f168201915b505097505050505050505060405180910390f35b341561023d57600080fd5b610245610387565b6040518082815260200191505060405180910390f35b341561026657600080fd5b61033c600480803590602001908201803590602001908080601f0160208091040260200160405190810160405280939291908181526020018383808284378201915050505050509190803590602001908201803590602001908080601f0160208091040260200160405190810160405280939291908181526020018383808284378201915050505050509190803590602001908201803590602001908080601f01602080910402602001604051908101604052809392919081815260200183838082843782019150505050505091905050610394565b005b60018181548110151561034d57fe5b90600052602060002090600402016000915090508060000160009054906101000a900460ff16908060010190806002019080600301905084565b6000600180549050905090565b61039c610592565b6000816000019015159081151581525050828160200181905250818160400181905250838160600181905250600180548060010182816103dc91906105cf565b9160005260206000209060040201600083909190915060008201518160000160006101000a81548160ff021916908315150217905550602082015181600101908051906020019061042e929190610601565b50604082015181600201908051906020019061044b929190610601565b506060820151816003019080519060200190610468929190610601565b505050503373ffffffffffffffffffffffffffffffffffffffff167fc4ec86da02df194278df461483335e5aa900124a9e37bc7783e6df9f23115f778585604051808060200180602001838103835285818151815260200191508051906020019080838360005b838110156104ea5780820151818401526020810190506104cf565b50505050905090810190601f1680156105175780820380516001836020036101000a031916815260200191505b50838103825284818151815260200191508051906020019080838360005b83811015610550578082015181840152602081019050610535565b50505050905090810190601f16801561057d5780820380516001836020036101000a031916815260200191505b5094505050505060405180910390a250505050565b6080604051908101604052806000151581526020016105af610681565b81526020016105bc610681565b81526020016105c9610681565b81525090565b8154818355818115116105fc576004028160040283600052602060002091820191016105fb9190610695565b5b505050565b828054600181600116156101000203166002900490600052602060002090601f016020900481019282601f1061064257805160ff1916838001178555610670565b82800160010185558215610670579182015b8281111561066f578251825591602001919060010190610654565b5b50905061067d91906106f8565b5090565b602060405190810160405280600081525090565b6106f591905b808211156106f157600080820160006101000a81549060ff02191690556001820160006106c8919061071d565b6002820160006106d8919061071d565b6003820160006106e8919061071d565b5060040161069b565b5090565b90565b61071a91905b808211156107165760008160009055506001016106fe565b5090565b90565b50805460018160011615610100020316600290046000825580601f106107435750610762565b601f01602090049060005260206000209081019061076191906106f8565b5b505600a165627a7a723058205182e09648ffdb32024946cbbb6a710f44ead95cb9b0a0c81e547b67f837041a0029",
  "source": "pragma solidity ^0.4.17;\n\ncontract Attestation {\n\n  address private owner;\n  Organisation[] public orgs;\n\n  event OrganisationAdded(address indexed orgAddress, string uportId, string name);\n\n  struct Organisation {\n    bool verified;\n    string name;\n    string registrationNumber;\n    string uportId;\n  }\n\n  function Attestation() public {\n    owner = msg.sender;\n  }\n\n  function addOrganisation(string uportId, string name,string registrationNumber) public {\n    //require(!organisations[msg.sender]);\n\n    Organisation memory org;\n\n    org.verified=false;\n    org.name= name;\n    org.registrationNumber= registrationNumber;\n    org.uportId = uportId;\n\n    orgs.push(org);\n\n    OrganisationAdded(msg.sender, uportId, name);\n  }\n\n\n  function getOrgsCount() public constant returns(uint orgsCount) {\n    return orgs.length;\n  }\n}\n",
  "sourcePath": "/Users/theobohnen/Source/unlocktheblock/website/contracts/Attestations.sol",
  "compiler": {
    "name": "solc",
    "version": "0.4.18+commit.9cf6e910.Emscripten.clang"
  },
  "schemaVersion": "1.0.1",
  "updatedAt": "2018-01-30T13:24:18.913Z"
}