{
  "contractName": "Attestation",
  "abi": [
    {
      "constant": true,
      "inputs": [],
      "name": "getClaimsCount",
      "outputs": [
        {
          "name": "claimsCount",
          "type": "uint256"
        }
      ],
      "payable": false,
      "stateMutability": "view",
      "type": "function"
    },
    {
      "constant": true,
      "inputs": [
        {
          "name": "",
          "type": "uint256"
        }
      ],
      "name": "orgs",
      "outputs": [
        {
          "name": "verified",
          "type": "bool"
        },
        {
          "name": "name",
          "type": "string"
        },
        {
          "name": "registrationNumber",
          "type": "string"
        },
        {
          "name": "claimantAddress",
          "type": "address"
        },
        {
          "name": "uportId",
          "type": "string"
        },
        {
          "name": "owner",
          "type": "address"
        }
      ],
      "payable": false,
      "stateMutability": "view",
      "type": "function"
    },
    {
      "constant": true,
      "inputs": [],
      "name": "getOrgsCount",
      "outputs": [
        {
          "name": "orgsCount",
          "type": "uint256"
        }
      ],
      "payable": false,
      "stateMutability": "view",
      "type": "function"
    },
    {
      "constant": true,
      "inputs": [
        {
          "name": "",
          "type": "uint256"
        }
      ],
      "name": "claims",
      "outputs": [
        {
          "name": "name",
          "type": "string"
        },
        {
          "name": "organisation",
          "type": "address"
        },
        {
          "name": "verified",
          "type": "bool"
        },
        {
          "name": "isPublic",
          "type": "bool"
        },
        {
          "name": "claimant",
          "type": "address"
        },
        {
          "name": "claimantUportId",
          "type": "string"
        },
        {
          "name": "added",
          "type": "uint256"
        }
      ],
      "payable": false,
      "stateMutability": "view",
      "type": "function"
    },
    {
      "constant": false,
      "inputs": [
        {
          "name": "name",
          "type": "string"
        },
        {
          "name": "organisation",
          "type": "address"
        },
        {
          "name": "claimant",
          "type": "address"
        },
        {
          "name": "isPublic",
          "type": "bool"
        },
        {
          "name": "claimantUportId",
          "type": "string"
        }
      ],
      "name": "addClaim",
      "outputs": [
        {
          "name": "claimIndex",
          "type": "uint256"
        }
      ],
      "payable": false,
      "stateMutability": "nonpayable",
      "type": "function"
    },
    {
      "constant": false,
      "inputs": [
        {
          "name": "uportId",
          "type": "string"
        },
        {
          "name": "name",
          "type": "string"
        },
        {
          "name": "registrationNumber",
          "type": "string"
        }
      ],
      "name": "addOrganisation",
      "outputs": [
        {
          "name": "orgIndex",
          "type": "uint256"
        }
      ],
      "payable": false,
      "stateMutability": "nonpayable",
      "type": "function"
    },
    {
      "inputs": [],
      "payable": false,
      "stateMutability": "nonpayable",
      "type": "constructor"
    },
    {
      "anonymous": false,
      "inputs": [
        {
          "indexed": true,
          "name": "orgAddress",
          "type": "address"
        },
        {
          "indexed": false,
          "name": "uportId",
          "type": "string"
        },
        {
          "indexed": false,
          "name": "name",
          "type": "string"
        }
      ],
      "name": "OrganisationAdded",
      "type": "event"
    },
    {
      "anonymous": false,
      "inputs": [
        {
          "indexed": true,
          "name": "organisation",
          "type": "address"
        },
        {
          "indexed": true,
          "name": "claimant",
          "type": "address"
        }
      ],
      "name": "ClaimAdded",
      "type": "event"
    }
  ],
  "bytecode": "0x6060604052341561000f57600080fd5b336000806101000a81548173ffffffffffffffffffffffffffffffffffffffff021916908373ffffffffffffffffffffffffffffffffffffffff1602179055506111388061005e6000396000f300606060405260043610610078576000357c0100000000000000000000000000000000000000000000000000000000900463ffffffff1680633ef8f2ba1461007d5780634f5c2e6c146100a657806376eb92ab146102e2578063a888c2cd1461030b578063bf081440146104d0578063c35d3370146105cd575b600080fd5b341561008857600080fd5b6100906106c4565b6040518082815260200191505060405180910390f35b34156100b157600080fd5b6100c760048080359060200190919050506106d1565b604051808715151515815260200180602001806020018673ffffffffffffffffffffffffffffffffffffffff1673ffffffffffffffffffffffffffffffffffffffff168152602001806020018573ffffffffffffffffffffffffffffffffffffffff1673ffffffffffffffffffffffffffffffffffffffff1681526020018481038452898181546001816001161561010002031660029004815260200191508054600181600116156101000203166002900480156101c65780601f1061019b576101008083540402835291602001916101c6565b820191906000526020600020905b8154815290600101906020018083116101a957829003601f168201915b50508481038352888181546001816001161561010002031660029004815260200191508054600181600116156101000203166002900480156102495780601f1061021e57610100808354040283529160200191610249565b820191906000526020600020905b81548152906001019060200180831161022c57829003601f168201915b50508481038252868181546001816001161561010002031660029004815260200191508054600181600116156101000203166002900480156102cc5780601f106102a1576101008083540402835291602001916102cc565b820191906000526020600020905b8154815290600101906020018083116102af57829003601f168201915b5050995050505050505050505060405180910390f35b34156102ed57600080fd5b6102f5610766565b6040518082815260200191505060405180910390f35b341561031657600080fd5b61032c6004808035906020019091905050610773565b60405180806020018873ffffffffffffffffffffffffffffffffffffffff1673ffffffffffffffffffffffffffffffffffffffff16815260200187151515158152602001861515151581526020018573ffffffffffffffffffffffffffffffffffffffff1673ffffffffffffffffffffffffffffffffffffffff1681526020018060200184815260200183810383528a8181546001816001161561010002031660029004815260200191508054600181600116156101000203166002900480156104375780601f1061040c57610100808354040283529160200191610437565b820191906000526020600020905b81548152906001019060200180831161041a57829003601f168201915b50508381038252858181546001816001161561010002031660029004815260200191508054600181600116156101000203166002900480156104ba5780601f1061048f576101008083540402835291602001916104ba565b820191906000526020600020905b81548152906001019060200180831161049d57829003601f168201915b5050995050505050505050505060405180910390f35b34156104db57600080fd5b6105b7600480803590602001908201803590602001908080601f0160208091040260200160405190810160405280939291908181526020018383808284378201915050505050509190803573ffffffffffffffffffffffffffffffffffffffff1690602001909190803573ffffffffffffffffffffffffffffffffffffffff16906020019091908035151590602001909190803590602001908201803590602001908080601f0160208091040260200160405190810160405280939291908181526020018383808284378201915050505050509190505061081c565b6040518082815260200191505060405180910390f35b34156105d857600080fd5b6106ae600480803590602001908201803590602001908080601f0160208091040260200160405190810160405280939291908181526020018383808284378201915050505050509190803590602001908201803590602001908080601f0160208091040260200160405190810160405280939291908181526020018383808284378201915050505050509190803590602001908201803590602001908080601f01602080910402602001604051908101604052809392919081815260200183838082843782019150505050505091905050610a7a565b6040518082815260200191505060405180910390f35b6000600280549050905090565b6001818154811015156106e057fe5b90600052602060002090600602016000915090508060000160009054906101000a900460ff1690806001019080600201908060030160009054906101000a900473ffffffffffffffffffffffffffffffffffffffff169080600401908060050160009054906101000a900473ffffffffffffffffffffffffffffffffffffffff16905086565b6000600180549050905090565b60028181548110151561078257fe5b906000526020600020906005020160009150905080600001908060010160009054906101000a900473ffffffffffffffffffffffffffffffffffffffff16908060010160149054906101000a900460ff16908060010160159054906101000a900460ff16908060020160009054906101000a900473ffffffffffffffffffffffffffffffffffffffff169080600301908060040154905087565b6000610826610d48565b86816000018190525085816020019073ffffffffffffffffffffffffffffffffffffffff16908173ffffffffffffffffffffffffffffffffffffffff168152505060008160400190151590811515815250508381606001901515908115158152505084816080019073ffffffffffffffffffffffffffffffffffffffff16908173ffffffffffffffffffffffffffffffffffffffff16815250508060a0015150428160c00181815250506001600280548060010182816108e69190610dc2565b916000526020600020906005020160008490919091506000820151816000019080519060200190610918929190610df4565b5060208201518160010160006101000a81548173ffffffffffffffffffffffffffffffffffffffff021916908373ffffffffffffffffffffffffffffffffffffffff16021790555060408201518160010160146101000a81548160ff02191690831515021790555060608201518160010160156101000a81548160ff02191690831515021790555060808201518160020160006101000a81548173ffffffffffffffffffffffffffffffffffffffff021916908373ffffffffffffffffffffffffffffffffffffffff16021790555060a0820151816003019080519060200190610a03929190610df4565b5060c0820151816004015550500391508473ffffffffffffffffffffffffffffffffffffffff168673ffffffffffffffffffffffffffffffffffffffff167f048fb386b60c0381c35ec94e3c4fb28df18491980eb5a75d1a8fa9fa7c4fbd2d60405160405180910390a38191505095945050505050565b6000610a84610e74565b6000816000019015159081151581525050838160200181905250828160400181905250848160800181905250338160a0019073ffffffffffffffffffffffffffffffffffffffff16908173ffffffffffffffffffffffffffffffffffffffff16815250506001808054806001018281610afd9190610eeb565b9160005260206000209060060201600084909190915060008201518160000160006101000a81548160ff0219169083151502179055506020820151816001019080519060200190610b4f929190610df4565b506040820151816002019080519060200190610b6c929190610df4565b5060608201518160030160006101000a81548173ffffffffffffffffffffffffffffffffffffffff021916908373ffffffffffffffffffffffffffffffffffffffff1602179055506080820151816004019080519060200190610bd0929190610df4565b5060a08201518160050160006101000a81548173ffffffffffffffffffffffffffffffffffffffff021916908373ffffffffffffffffffffffffffffffffffffffff16021790555050500391503373ffffffffffffffffffffffffffffffffffffffff167fc4ec86da02df194278df461483335e5aa900124a9e37bc7783e6df9f23115f778686604051808060200180602001838103835285818151815260200191508051906020019080838360005b83811015610c9b578082015181840152602081019050610c80565b50505050905090810190601f168015610cc85780820380516001836020036101000a031916815260200191505b50838103825284818151815260200191508051906020019080838360005b83811015610d01578082015181840152602081019050610ce6565b50505050905090810190601f168015610d2e5780820380516001836020036101000a031916815260200191505b5094505050505060405180910390a2819150509392505050565b60e060405190810160405280610d5c610f1d565b8152602001600073ffffffffffffffffffffffffffffffffffffffff168152602001600015158152602001600015158152602001600073ffffffffffffffffffffffffffffffffffffffff168152602001610db5610f1d565b8152602001600081525090565b815481835581811511610def57600502816005028360005260206000209182019101610dee9190610f31565b5b505050565b828054600181600116156101000203166002900490600052602060002090601f016020900481019282601f10610e3557805160ff1916838001178555610e63565b82800160010185558215610e63579182015b82811115610e62578251825591602001919060010190610e47565b5b509050610e709190610fee565b5090565b60c060405190810160405280600015158152602001610e91610f1d565b8152602001610e9e610f1d565b8152602001600073ffffffffffffffffffffffffffffffffffffffff168152602001610ec8610f1d565b8152602001600073ffffffffffffffffffffffffffffffffffffffff1681525090565b815481835581811511610f1857600602816006028360005260206000209182019101610f179190611013565b5b505050565b602060405190810160405280600081525090565b610feb91905b80821115610fe75760008082016000610f5091906110c4565b6001820160006101000a81549073ffffffffffffffffffffffffffffffffffffffff02191690556001820160146101000a81549060ff02191690556001820160156101000a81549060ff02191690556002820160006101000a81549073ffffffffffffffffffffffffffffffffffffffff0219169055600382016000610fd691906110c4565b600482016000905550600501610f37565b5090565b90565b61101091905b8082111561100c576000816000905550600101610ff4565b5090565b90565b6110c191905b808211156110bd57600080820160006101000a81549060ff021916905560018201600061104691906110c4565b60028201600061105691906110c4565b6003820160006101000a81549073ffffffffffffffffffffffffffffffffffffffff021916905560048201600061108d91906110c4565b6005820160006101000a81549073ffffffffffffffffffffffffffffffffffffffff021916905550600601611019565b5090565b90565b50805460018160011615610100020316600290046000825580601f106110ea5750611109565b601f0160209004906000526020600020908101906111089190610fee565b5b505600a165627a7a72305820a77c392118d37db69aa69146282ce813295ae82f6eeeaf92ab4a931e7a5a796a0029",
  "source": "pragma solidity ^0.4.17;\n\ncontract Attestation {\n\n  address private owner;\n  Organisation[] public orgs;\n  //we need to figure out how one can return a filtered list of claims for someone.\n  Claim[] public claims;\n\n  event OrganisationAdded(address indexed orgAddress, string uportId, string name);\n  event ClaimAdded(address indexed organisation, address indexed claimant);\n\n  struct Organisation {\n    bool verified;\n    string name;\n    string registrationNumber;\n    address claimantAddress;\n    string uportId;\n    address owner;\n  }\n\n  //too much information, will reduce later once we know what isn't useful.\n  struct Claim {\n    string name;\n    address organisation;\n    bool verified;\n    bool isPublic;\n    address claimant;\n    string claimantUportId;\n    uint added;\n  }\n\n  function addClaim(string name, address organisation, address claimant, bool isPublic, string claimantUportId) public returns (uint claimIndex) {\n\n    Claim memory claim;\n\n    claim.name = name;\n    claim.organisation = organisation;\n    claim.verified = false;//make sure it's false\n    claim.isPublic = isPublic;\n    claim.claimant = claimant;\n    claim.claimantUportId;\n    claim.added = block.timestamp;\n\n    claimIndex = claims.push(claim)-1;\n\n    ClaimAdded(organisation, claimant);\n\n    return claimIndex;\n  }\n\n  function Attestation() public {\n    owner = msg.sender;\n  }\n\n  function addOrganisation(string uportId, string name,string registrationNumber) public returns (uint orgIndex){\n    //require(!organisations[msg.sender]);\n\n    Organisation memory org;\n\n    org.verified=false;\n    org.name= name;\n    org.registrationNumber= registrationNumber;\n    org.uportId = uportId;\n    org.owner = msg.sender;\n\n    orgIndex = orgs.push(org)-1;\n\n    OrganisationAdded(msg.sender, uportId, name);\n\n    return orgIndex;\n\n  }\n\n  //make this protected by either the claimant or public or organisation\n\n  /* function getClaims(address claimant) returns (uint[10]){ */\n  /*   uint[] memory claimIds = new uint[]; */\n  /*   for (uint i =0; i < getClaimsCount(); i++){ */\n  /*     if (claims[i].claimant == claimant){ */\n  /*       claimIds.push(i); */\n  /*     } */\n  /*   } */\n\n  /*   return claimIds; */\n  /* } */\n\n  function getOrgsCount() public constant returns(uint orgsCount) {\n    return orgs.length;\n  }\n\n  function getClaimsCount() public constant returns(uint claimsCount) {\n    return claims.length;\n  }\n}\n",
  "sourcePath": "/Users/theobohnen/Source/unlocktheblock/website/contracts/Attestations.sol",
  "compiler": {
    "name": "solc",
    "version": "0.4.18+commit.9cf6e910.Emscripten.clang"
  },
  "schemaVersion": "1.0.1",
  "updatedAt": "2018-01-30T19:03:08.504Z"
}