{
  "contractName": "Marketplace",
  "abi": [
    {
      "constant": false,
      "inputs": [
        {
          "name": "jobId",
          "type": "uint256"
        }
      ],
      "name": "requestJob",
      "outputs": [],
      "payable": false,
      "stateMutability": "nonpayable",
      "type": "function"
    },
    {
      "constant": false,
      "inputs": [
        {
          "name": "title",
          "type": "string"
        },
        {
          "name": "description",
          "type": "string"
        },
        {
          "name": "providerName",
          "type": "string"
        },
        {
          "name": "paymentAmountInWei",
          "type": "uint256"
        },
        {
          "name": "providerUportId",
          "type": "string"
        }
      ],
      "name": "addJobOffer",
      "outputs": [
        {
          "name": "jobIndex",
          "type": "uint256"
        }
      ],
      "payable": false,
      "stateMutability": "nonpayable",
      "type": "function"
    },
    {
      "constant": true,
      "inputs": [
        {
          "name": "",
          "type": "uint256"
        }
      ],
      "name": "jobs",
      "outputs": [
        {
          "name": "title",
          "type": "string"
        },
        {
          "name": "description",
          "type": "string"
        },
        {
          "name": "provider",
          "type": "address"
        },
        {
          "name": "providerName",
          "type": "string"
        },
        {
          "name": "providerUportId",
          "type": "string"
        },
        {
          "name": "status",
          "type": "string"
        },
        {
          "name": "created",
          "type": "uint256"
        },
        {
          "name": "paymentAmountInWei",
          "type": "uint256"
        },
        {
          "name": "request",
          "type": "address"
        }
      ],
      "payable": false,
      "stateMutability": "view",
      "type": "function"
    },
    {
      "constant": true,
      "inputs": [
        {
          "name": "",
          "type": "uint256"
        },
        {
          "name": "",
          "type": "uint256"
        }
      ],
      "name": "jobRequests",
      "outputs": [
        {
          "name": "requestorAddress",
          "type": "address"
        },
        {
          "name": "requestorName",
          "type": "string"
        },
        {
          "name": "requestorUportId",
          "type": "string"
        }
      ],
      "payable": false,
      "stateMutability": "view",
      "type": "function"
    },
    {
      "constant": true,
      "inputs": [],
      "name": "getJobsCount",
      "outputs": [
        {
          "name": "jobsCount",
          "type": "uint256"
        }
      ],
      "payable": false,
      "stateMutability": "view",
      "type": "function"
    },
    {
      "inputs": [],
      "payable": false,
      "stateMutability": "nonpayable",
      "type": "constructor"
    },
    {
      "anonymous": false,
      "inputs": [
        {
          "indexed": true,
          "name": "id",
          "type": "uint256"
        },
        {
          "indexed": false,
          "name": "title",
          "type": "string"
        }
      ],
      "name": "JobAdded",
      "type": "event"
    }
  ],
  "bytecode": "0x6060604052341561000f57600080fd5b336000806101000a81548173ffffffffffffffffffffffffffffffffffffffff021916908373ffffffffffffffffffffffffffffffffffffffff160217905550610e348061005e6000396000f30060606040526004361061006c576000357c0100000000000000000000000000000000000000000000000000000000900463ffffffff168062440b311461007157806311f8b8ce14610094578063180aedf3146101d75780639f85840d14610528578063d07e9f90146106a6575b600080fd5b341561007c57600080fd5b61009260048080359060200190919050506106cf565b005b341561009f57600080fd5b6101c1600480803590602001908201803590602001908080601f0160208091040260200160405190810160405280939291908181526020018383808284378201915050505050509190803590602001908201803590602001908080601f0160208091040260200160405190810160405280939291908181526020018383808284378201915050505050509190803590602001908201803590602001908080601f0160208091040260200160405190810160405280939291908181526020018383808284378201915050505050509190803590602001909190803590602001908201803590602001908080601f01602080910402602001604051908101604052809392919081815260200183838082843782019150505050505091905050610796565b6040518082815260200191505060405180910390f35b34156101e257600080fd5b6101f86004808035906020019091905050610a5c565b6040518080602001806020018a73ffffffffffffffffffffffffffffffffffffffff1673ffffffffffffffffffffffffffffffffffffffff1681526020018060200180602001806020018981526020018881526020018773ffffffffffffffffffffffffffffffffffffffff1673ffffffffffffffffffffffffffffffffffffffff16815260200186810386528f8181546001816001161561010002031660029004815260200191508054600181600116156101000203166002900480156103015780601f106102d657610100808354040283529160200191610301565b820191906000526020600020905b8154815290600101906020018083116102e457829003601f168201915b505086810385528e8181546001816001161561010002031660029004815260200191508054600181600116156101000203166002900480156103845780601f1061035957610100808354040283529160200191610384565b820191906000526020600020905b81548152906001019060200180831161036757829003601f168201915b505086810384528c8181546001816001161561010002031660029004815260200191508054600181600116156101000203166002900480156104075780601f106103dc57610100808354040283529160200191610407565b820191906000526020600020905b8154815290600101906020018083116103ea57829003601f168201915b505086810383528b81815460018160011615610100020316600290048152602001915080546001816001161561010002031660029004801561048a5780601f1061045f5761010080835404028352916020019161048a565b820191906000526020600020905b81548152906001019060200180831161046d57829003601f168201915b505086810382528a81815460018160011615610100020316600290048152602001915080546001816001161561010002031660029004801561050d5780601f106104e25761010080835404028352916020019161050d565b820191906000526020600020905b8154815290600101906020018083116104f057829003601f168201915b50509e50505050505050505050505050505060405180910390f35b341561053357600080fd5b6105526004808035906020019091908035906020019091905050610af4565b604051808473ffffffffffffffffffffffffffffffffffffffff1673ffffffffffffffffffffffffffffffffffffffff16815260200180602001806020018381038352858181546001816001161561010002031660029004815260200191508054600181600116156101000203166002900480156106115780601f106105e657610100808354040283529160200191610611565b820191906000526020600020905b8154815290600101906020018083116105f457829003601f168201915b50508381038252848181546001816001161561010002031660029004815260200191508054600181600116156101000203166002900480156106945780601f1061066957610100808354040283529160200191610694565b820191906000526020600020905b81548152906001019060200180831161067757829003601f168201915b50509550505050505060405180910390f35b34156106b157600080fd5b6106b9610b64565b6040518082815260200191505060405180910390f35b60006001828154811015156106e057fe5b90600052602060002090600902019050600073ffffffffffffffffffffffffffffffffffffffff168160080160009054906101000a900473ffffffffffffffffffffffffffffffffffffffff1673ffffffffffffffffffffffffffffffffffffffff1614151561074f57600080fd5b338160080160006101000a81548173ffffffffffffffffffffffffffffffffffffffff021916908373ffffffffffffffffffffffffffffffffffffffff1602179055505050565b60006107a0610b71565b84816060018190525033816040019073ffffffffffffffffffffffffffffffffffffffff16908173ffffffffffffffffffffffffffffffffffffffff1681525050858160200181905250868160000181905250428160c00181815250506040805190810160405280600781526020017f43726561746564000000000000000000000000000000000000000000000000008152508160a00181905250828160800181905250838160e001818152505060018080548060010182816108639190610c08565b916000526020600020906009020160008490919091506000820151816000019080519060200190610895929190610c3a565b5060208201518160010190805190602001906108b2929190610c3a565b5060408201518160020160006101000a81548173ffffffffffffffffffffffffffffffffffffffff021916908373ffffffffffffffffffffffffffffffffffffffff1602179055506060820151816003019080519060200190610916929190610c3a565b506080820151816004019080519060200190610933929190610c3a565b5060a0820151816005019080519060200190610950929190610c3a565b5060c0820151816006015560e082015181600701556101008201518160080160006101000a81548173ffffffffffffffffffffffffffffffffffffffff021916908373ffffffffffffffffffffffffffffffffffffffff1602179055505050039150817fd20cd5a820b437a8b626451f79bea6c725fee49b38cec46c1b7eb12b44d40953886040518080602001828103825283818151815260200191508051906020019080838360005b83811015610a155780820151818401526020810190506109fa565b50505050905090810190601f168015610a425780820380516001836020036101000a031916815260200191505b509250505060405180910390a28191505095945050505050565b600181815481101515610a6b57fe5b9060005260206000209060090201600091509050806000019080600101908060020160009054906101000a900473ffffffffffffffffffffffffffffffffffffffff16908060030190806004019080600501908060060154908060070154908060080160009054906101000a900473ffffffffffffffffffffffffffffffffffffffff16905089565b600282815481101515610b0357fe5b906000526020600020900181815481101515610b1b57fe5b9060005260206000209060030201600091509150508060000160009054906101000a900473ffffffffffffffffffffffffffffffffffffffff1690806001019080600201905083565b6000600180549050905090565b61012060405190810160405280610b86610cba565b8152602001610b93610cba565b8152602001600073ffffffffffffffffffffffffffffffffffffffff168152602001610bbd610cba565b8152602001610bca610cba565b8152602001610bd7610cba565b81526020016000815260200160008152602001600073ffffffffffffffffffffffffffffffffffffffff1681525090565b815481835581811511610c3557600902816009028360005260206000209182019101610c349190610cce565b5b505050565b828054600181600116156101000203166002900490600052602060002090601f016020900481019282601f10610c7b57805160ff1916838001178555610ca9565b82800160010185558215610ca9579182015b82811115610ca8578251825591602001919060010190610c8d565b5b509050610cb69190610d9b565b5090565b602060405190810160405280600081525090565b610d9891905b80821115610d945760008082016000610ced9190610dc0565b600182016000610cfd9190610dc0565b6002820160006101000a81549073ffffffffffffffffffffffffffffffffffffffff0219169055600382016000610d349190610dc0565b600482016000610d449190610dc0565b600582016000610d549190610dc0565b600682016000905560078201600090556008820160006101000a81549073ffffffffffffffffffffffffffffffffffffffff021916905550600901610cd4565b5090565b90565b610dbd91905b80821115610db9576000816000905550600101610da1565b5090565b90565b50805460018160011615610100020316600290046000825580601f10610de65750610e05565b601f016020900490600052602060002090810190610e049190610d9b565b5b505600a165627a7a72305820713185b3f8c5fd9a887a6e420e1fc81da09562c5e5a84d2cd8436ca8a1f190180029",
  "source": "pragma solidity ^0.4.17;\n\ncontract Marketplace {\n\n  address owner;\n  JobOffer[] public jobs;\n  JobRequest[][] public jobRequests;\n  //mapping (uint => JobRequest[]) public jobRequests;\n  //mapping (uint => uint) jobRequestCount;\n\n  event JobAdded(uint indexed id, string title);\n\n  struct JobRequest {\n    address requestorAddress;\n    string requestorName;\n    string requestorUportId;\n  }\n\n  struct JobOffer {\n    string title;\n    string description;\n    address provider;\n    string providerName;\n    string providerUportId;\n    string status;\n    uint created;\n    uint paymentAmountInWei;\n    address request;\n  }\n\n  function addJobOffer(string title, string description, string providerName, uint paymentAmountInWei, string providerUportId) public returns (uint jobIndex) {\n    JobOffer memory jobOffer;\n\n    jobOffer.providerName = providerName;\n    jobOffer.provider = msg.sender;\n    jobOffer.description = description;\n    jobOffer.title = title;\n    jobOffer.created = block.timestamp;\n    jobOffer.status = \"Created\";\n    jobOffer.providerUportId = providerUportId;\n    jobOffer.paymentAmountInWei = paymentAmountInWei;\n\n    jobIndex = jobs.push(jobOffer)-1;\n\n    JobAdded(jobIndex, title);\n\n    return jobIndex;\n  }\n\n  function requestJob(uint jobId) public {\n    JobOffer job = jobs[jobId];\n\n    require(job.request == 0x0000000000000000000000000000000000000000);\n\n    job.request = msg.sender;\n\n    //address[] addresses = job.requests;\n    //addresses.push(msg.sender);\n\n    //job.requests = addresses;\n\n\n\n    //null check plz\n    //var currentCount = jobRequestCount[jobId];\n\n    /* JobRequest memory jobRequest; */\n\n    /* JobRequest[] storage j = JobRequest[](0); */\n\n    /* jobRequest.requestorAddress = msg.sender; */\n    /* jobRequest.requestorName = requestorName; */\n    /* jobRequest.requestorUportId = requestorUportId; */\n    /* jobRequests[jobId] = j; */\n\n    // .push(jobRequest);// = jobRequest;\n  }\n\n\n  /* function getRequestsForJob(uint jobId) public returns (JobRequest) { */\n  /*   JobRequest memory jobRequest; */\n  /*   jobRequest = jobRequests[jobId]; */\n  /*   return jobRequest; */\n  /* } */\n\n\n  function Marketplace() public {\n    owner = msg.sender;\n  }\n\n  function getJobsCount() public constant returns(uint jobsCount) {\n    return jobs.length;\n  }\n}\n",
  "sourcePath": "/Users/theobohnen/Source/unlocktheblock/website/contracts/Marketplace.sol",
  "compiler": {
    "name": "solc",
    "version": "0.4.18+commit.9cf6e910.Emscripten.clang"
  },
  "schemaVersion": "1.0.1",
  "updatedAt": "2018-01-31T21:02:19.014Z"
}